{
  "transactions": [
    {
      "hash": "0x495d0de244ae4cb6a4fcb8b101500568a7ebef7820fbb34fbace45e20516462f",
      "transactionType": "CALL",
      "contractName": null,
      "contractAddress": "0x0635513f179d50a207757e05759cbd106d7dfce8",
      "function": "setApprovalForAll(address,bool)",
      "arguments": [
        "0x61067458871322Ed5438f8b93Ebb46368F9eeAc6",
        "true"
      ],
      "transaction": {
        "from": "0x224b11f0747c7688a10acc15f785354aa6493ed6",
        "to": "0x0635513f179d50a207757e05759cbd106d7dfce8",
        "gas": "0xf934",
        "value": "0x0",
        "input": "0xa22cb46500000000000000000000000061067458871322ed5438f8b93ebb46368f9eeac60000000000000000000000000000000000000000000000000000000000000001",
        "nonce": "0x2a",
        "chainId": "0xaa36a7"
      },
      "additionalContracts": [],
      "isFixedGasLimit": false
    }
  ],
  "receipts": [
    {
      "status": "0x1",
      "cumulativeGasUsed": "0x18f1b22",
      "logs": [
        {
          "address": "0x0635513f179d50a207757e05759cbd106d7dfce8",
          "topics": [
            "0x17307eab39ab6107e8899845ad3d59bd9653f200f220920489ca2b5937696c31",
            "0x000000000000000000000000224b11f0747c7688a10acc15f785354aa6493ed6",
            "0x00000000000000000000000061067458871322ed5438f8b93ebb46368f9eeac6"
          ],
          "data": "0x0000000000000000000000000000000000000000000000000000000000000001",
          "blockHash": "0x06d10f1531c0f3badb2253445049dd46980d25a96adbcee3ae3da34b7855272a",
          "blockNumber": "0xa437e1",
          "blockTimestamp": "0x69f34e60",
          "transactionHash": "0x495d0de244ae4cb6a4fcb8b101500568a7ebef7820fbb34fbace45e20516462f",
          "transactionIndex": "0xb1",
          "logIndex": "0x2f2",
          "removed": false
        }
      ],
      "logsBloom": "0x00000000000000400000000000000000000000000000000020000000000004000000000000000001000000000000000000000002000000000000000000010000000000000000000000000000000000000000000000000000000000000000000002000000000000000000000004000000000000000000000000000000000000000000000000000000000000000000000000000000000000000000000000000000000000000000000000000000000000000000000000000000000000000000000000000000000000000000004000000000004000000000000000000000000000000000200800000000000000000000000000000000000000000000000000000000",
      "type": "0x2",
      "transactionHash": "0x495d0de244ae4cb6a4fcb8b101500568a7ebef7820fbb34fbace45e20516462f",
      "transactionIndex": "0xb1",
      "blockHash": "0x06d10f1531c0f3badb2253445049dd46980d25a96adbcee3ae3da34b7855272a",
      "blockNumber": "0xa437e1",
      "gasUsed": "0xb46c",
      "effectiveGasPrice": "0x12effe",
      "from": "0x224b11f0747c7688a10acc15f785354aa6493ed6",
      "to": "0x0635513f179d50a207757e05759cbd106d7dfce8",
      "contractAddress": null
    }
  ],
  "libraries": [],
  "pending": [],
  "returns": {},
  "timestamp": 1777552993952,
  "chain": 11155111,
  "commit": "828894b"
}