{
  "transactions": [
    {
      "hash": "0x73bf90382abcedbf603647294ee3abb2cedce10eb905c440269f0158740d8260",
      "transactionType": "CALL",
      "contractName": null,
      "contractAddress": "0x0635513f179d50a207757e05759cbd106d7dfce8",
      "function": "setApprovalForAll(address,bool)",
      "arguments": [
        "0x45e6D4230064F9dd806330dA9D92639f8665D9bf",
        "true"
      ],
      "transaction": {
        "from": "0x224b11f0747c7688a10acc15f785354aa6493ed6",
        "to": "0x0635513f179d50a207757e05759cbd106d7dfce8",
        "gas": "0xf924",
        "value": "0x0",
        "input": "0xa22cb46500000000000000000000000045e6d4230064f9dd806330da9d92639f8665d9bf0000000000000000000000000000000000000000000000000000000000000001",
        "nonce": "0x29",
        "chainId": "0xaa36a7"
      },
      "additionalContracts": [],
      "isFixedGasLimit": false
    }
  ],
  "receipts": [
    {
      "status": "0x1",
      "cumulativeGasUsed": "0xb460",
      "logs": [
        {
          "address": "0x0635513f179d50a207757e05759cbd106d7dfce8",
          "topics": [
            "0x17307eab39ab6107e8899845ad3d59bd9653f200f220920489ca2b5937696c31",
            "0x000000000000000000000000224b11f0747c7688a10acc15f785354aa6493ed6",
            "0x00000000000000000000000045e6d4230064f9dd806330da9d92639f8665d9bf"
          ],
          "data": "0x0000000000000000000000000000000000000000000000000000000000000001",
          "blockHash": "0x924ad3648aa017daa3ceb35e15207f16ddd33175cf630b22ae7aa8fefb4b87eb",
          "blockNumber": "0xa43569",
          "blockTimestamp": "0x69f32fae",
          "transactionHash": "0x73bf90382abcedbf603647294ee3abb2cedce10eb905c440269f0158740d8260",
          "transactionIndex": "0x0",
          "logIndex": "0x0",
          "removed": false
        }
      ],
      "logsBloom": "0x00000000000000400000000000000000000000000000002020000000000004000000000000000000000000000000000000000000000000000000000000010000000000000000000000200000000000000000000000000000000000000000000002000000000000000000000004000000000000000000000000000000000000000000000000000000000000000000000000000000000000000000000000000000000000000000000000000000000000000000000000000000000000000000000000000000000000000000004000000000000000000000000000000000000000000000200800000000000000000400000000000000000000000000000000000000",
      "type": "0x2",
      "transactionHash": "0x73bf90382abcedbf603647294ee3abb2cedce10eb905c440269f0158740d8260",
      "transactionIndex": "0x0",
      "blockHash": "0x924ad3648aa017daa3ceb35e15207f16ddd33175cf630b22ae7aa8fefb4b87eb",
      "blockNumber": "0xa43569",
      "gasUsed": "0xb460",
      "effectiveGasPrice": "0xf5dec",
      "blobGasPrice": "0xc",
      "from": "0x224b11f0747c7688a10acc15f785354aa6493ed6",
      "to": "0x0635513f179d50a207757e05759cbd106d7dfce8",
      "contractAddress": null
    }
  ],
  "libraries": [],
  "pending": [],
  "returns": {},
  "timestamp": 1777545145587,
  "chain": 11155111,
  "commit": "a718492"
}