{
  "transactions": [
    {
      "hash": "0x92860de2d88a506175f59ba22c60e3db55a127edb5f6ee7ca80d0ab44cfca817",
      "transactionType": "CALL",
      "contractName": null,
      "contractAddress": "0x45e6d4230064f9dd806330da9d92639f8665d9bf",
      "function": "setSubdomain(string,address,uint64)",
      "arguments": [
        "dayan",
        "0x224b11F0747c7688a10aCC15F785354aA6493ED6",
        "2100769908"
      ],
      "transaction": {
        "from": "0x224b11f0747c7688a10acc15f785354aa6493ed6",
        "to": "0x45e6d4230064f9dd806330da9d92639f8665d9bf",
        "gas": "0x33d58",
        "value": "0x0",
        "input": "0x69936e560000000000000000000000000000000000000000000000000000000000000060000000000000000000000000224b11f0747c7688a10acc15f785354aa6493ed6000000000000000000000000000000000000000000000000000000007d3734740000000000000000000000000000000000000000000000000000000000000005646179616e000000000000000000000000000000000000000000000000000000",
        "nonce": "0x2a",
        "chainId": "0xaa36a7"
      },
      "additionalContracts": [],
      "isFixedGasLimit": false
    },
    {
      "hash": "0x07fbb8f0905c191ca2b6aed596c4059a85a117c737749d276e94e3690ee51137",
      "transactionType": "CALL",
      "contractName": null,
      "contractAddress": "0x45e6d4230064f9dd806330da9d92639f8665d9bf",
      "function": "setSubdomain(string,address,uint64)",
      "arguments": [
        "nicolas",
        "0x224b11F0747c7688a10aCC15F785354aA6493ED6",
        "2100769908"
      ],
      "transaction": {
        "from": "0x224b11f0747c7688a10acc15f785354aa6493ed6",
        "to": "0x45e6d4230064f9dd806330da9d92639f8665d9bf",
        "gas": "0x33d79",
        "value": "0x0",
        "input": "0x69936e560000000000000000000000000000000000000000000000000000000000000060000000000000000000000000224b11f0747c7688a10acc15f785354aa6493ed6000000000000000000000000000000000000000000000000000000007d37347400000000000000000000000000000000000000000000000000000000000000076e69636f6c617300000000000000000000000000000000000000000000000000",
        "nonce": "0x2b",
        "chainId": "0xaa36a7"
      },
      "additionalContracts": [],
      "isFixedGasLimit": false
    },
    {
      "hash": "0x75f69f909b089db6a5221fbd0f6ad1e465980fb0b0583d8a0633d041b3521ddb",
      "transactionType": "CALL",
      "contractName": null,
      "contractAddress": "0x45e6d4230064f9dd806330da9d92639f8665d9bf",
      "function": "setSubdomain(string,address,uint64)",
      "arguments": [
        "gabriel",
        "0x224b11F0747c7688a10aCC15F785354aA6493ED6",
        "2100769908"
      ],
      "transaction": {
        "from": "0x224b11f0747c7688a10acc15f785354aa6493ed6",
        "to": "0x45e6d4230064f9dd806330da9d92639f8665d9bf",
        "gas": "0x33d79",
        "value": "0x0",
        "input": "0x69936e560000000000000000000000000000000000000000000000000000000000000060000000000000000000000000224b11f0747c7688a10acc15f785354aa6493ed6000000000000000000000000000000000000000000000000000000007d37347400000000000000000000000000000000000000000000000000000000000000076761627269656c00000000000000000000000000000000000000000000000000",
        "nonce": "0x2c",
        "chainId": "0xaa36a7"
      },
      "additionalContracts": [],
      "isFixedGasLimit": false
    }
  ],
  "receipts": [
    {
      "status": "0x1",
      "cumulativeGasUsed": "0x2586f",
      "logs": [
        {
          "address": "0x00000000000c2e074ec69a0dfb2997ba6c7d2e1e",
          "topics": [
            "0xce0457fe73731f824cc272376169235128c118b49d344817417c6d108d155e82",
            "0xa5a5de1b77998a2f087d62b345f66c119d03c7137e0dc19724a45235b1cd9bcf",
            "0xf70c8a38e446ed85d075c3529e16d3bcdfaadf167039f13b9f77d6f57bc04c03"
          ],
          "data": "0x0000000000000000000000000635513f179d50a207757e05759cbd106d7dfce8",
          "blockHash": "0x7ac84da1ec30331b48acc45e8e49aa2c42144e65d054c8621b1e7584f9001127",
          "blockNumber": "0xa43606",
          "blockTimestamp": "0x69f342a2",
          "transactionHash": "0x92860de2d88a506175f59ba22c60e3db55a127edb5f6ee7ca80d0ab44cfca817",
          "transactionIndex": "0x0",
          "logIndex": "0x0",
          "removed": false
        },
        {
          "address": "0x00000000000c2e074ec69a0dfb2997ba6c7d2e1e",
          "topics": [
            "0x335721b01866dc23fbee8b6b2c7b1e14d6f05c28cd35a2c934239f94095602a0",
            "0x927d6fa3751d57b9748df5d48076a9afc5ce3698a2c19b20eb9b57379fa47711"
          ],
          "data": "0x000000000000000000000000e99638b40e4fff0129d56f03b55b6bbc4bbe49b5",
          "blockHash": "0x7ac84da1ec30331b48acc45e8e49aa2c42144e65d054c8621b1e7584f9001127",
          "blockNumber": "0xa43606",
          "blockTimestamp": "0x69f342a2",
          "transactionHash": "0x92860de2d88a506175f59ba22c60e3db55a127edb5f6ee7ca80d0ab44cfca817",
          "transactionIndex": "0x0",
          "logIndex": "0x1",
          "removed": false
        },
        {
          "address": "0x0635513f179d50a207757e05759cbd106d7dfce8",
          "topics": [
            "0xc3d58168c5ae7397731d063d5bbf3d657854427343f4c083240f7aacaa2d0f62",
            "0x00000000000000000000000045e6d4230064f9dd806330da9d92639f8665d9bf",
            "0x0000000000000000000000000000000000000000000000000000000000000000",
            "0x000000000000000000000000224b11f0747c7688a10acc15f785354aa6493ed6"
          ],
          "data": "0x927d6fa3751d57b9748df5d48076a9afc5ce3698a2c19b20eb9b57379fa477110000000000000000000000000000000000000000000000000000000000000001",
          "blockHash": "0x7ac84da1ec30331b48acc45e8e49aa2c42144e65d054c8621b1e7584f9001127",
          "blockNumber": "0xa43606",
          "blockTimestamp": "0x69f342a2",
          "transactionHash": "0x92860de2d88a506175f59ba22c60e3db55a127edb5f6ee7ca80d0ab44cfca817",
          "transactionIndex": "0x0",
          "logIndex": "0x2",
          "removed": false
        },
        {
          "address": "0x0635513f179d50a207757e05759cbd106d7dfce8",
          "topics": [
            "0x8ce7013e8abebc55c3890a68f5a27c67c3f7efa64e584de5fb22363c606fd340",
            "0x927d6fa3751d57b9748df5d48076a9afc5ce3698a2c19b20eb9b57379fa47711"
          ],
          "data": "0x0000000000000000000000000000000000000000000000000000000000000080000000000000000000000000224b11f0747c7688a10acc15f785354aa6493ed60000000000000000000000000000000000000000000000000000000000000000000000000000000000000000000000000000000000000000000000007d373474000000000000000000000000000000000000000000000000000000000000001305646179616e076167656e746963036574680000000000000000000000000000",
          "blockHash": "0x7ac84da1ec30331b48acc45e8e49aa2c42144e65d054c8621b1e7584f9001127",
          "blockNumber": "0xa43606",
          "blockTimestamp": "0x69f342a2",
          "transactionHash": "0x92860de2d88a506175f59ba22c60e3db55a127edb5f6ee7ca80d0ab44cfca817",
          "transactionIndex": "0x0",
          "logIndex": "0x3",
          "removed": false
        }
      ],
      "logsBloom": "0x00000000000000400000000000000000000200000000002020000000000014000000000000000000000000000000000000000000000010000000000000032000000000000000000040200000000000000000000000000000000000000000000000000800020000020000000004000800000000200002000000000000000000000000010000000000000000000000000000000000000000000000000000800000000000000000040000000000000000000004000000000000000000040000000000000002000000004000004000004000000000000008000000000000000020000000000800000040000000000500000000000000000000000040080000000000",
      "type": "0x2",
      "transactionHash": "0x92860de2d88a506175f59ba22c60e3db55a127edb5f6ee7ca80d0ab44cfca817",
      "transactionIndex": "0x0",
      "blockHash": "0x7ac84da1ec30331b48acc45e8e49aa2c42144e65d054c8621b1e7584f9001127",
      "blockNumber": "0xa43606",
      "gasUsed": "0x2586f",
      "effectiveGasPrice": "0xf686b",
      "blobGasPrice": "0x2",
      "from": "0x224b11f0747c7688a10acc15f785354aa6493ed6",
      "to": "0x45e6d4230064f9dd806330da9d92639f8665d9bf",
      "contractAddress": null
    },
    {
      "status": "0x1",
      "cumulativeGasUsed": "0x25887",
      "logs": [
        {
          "address": "0x00000000000c2e074ec69a0dfb2997ba6c7d2e1e",
          "topics": [
            "0xce0457fe73731f824cc272376169235128c118b49d344817417c6d108d155e82",
            "0xa5a5de1b77998a2f087d62b345f66c119d03c7137e0dc19724a45235b1cd9bcf",
            "0xf1a933c59921cf66491cd138f52e58cfc498d66d29a4cb3ae953e78a06e292ad"
          ],
          "data": "0x0000000000000000000000000635513f179d50a207757e05759cbd106d7dfce8",
          "blockHash": "0x658527a0bbd73af06aaa718a77139e85eaebe7c734b9dd66f351365bbe1f04ce",
          "blockNumber": "0xa43607",
          "blockTimestamp": "0x69f342a2",
          "transactionHash": "0x75f69f909b089db6a5221fbd0f6ad1e465980fb0b0583d8a0633d041b3521ddb",
          "transactionIndex": "0x0",
          "logIndex": "0x0",
          "removed": false
        },
        {
          "address": "0x00000000000c2e074ec69a0dfb2997ba6c7d2e1e",
          "topics": [
            "0x335721b01866dc23fbee8b6b2c7b1e14d6f05c28cd35a2c934239f94095602a0",
            "0x2c3148b804759549bea938aab4264d3fe312832a7c9523f2f4e728f32d414780"
          ],
          "data": "0x000000000000000000000000e99638b40e4fff0129d56f03b55b6bbc4bbe49b5",
          "blockHash": "0x658527a0bbd73af06aaa718a77139e85eaebe7c734b9dd66f351365bbe1f04ce",
          "blockNumber": "0xa43607",
          "blockTimestamp": "0x69f342a2",
          "transactionHash": "0x75f69f909b089db6a5221fbd0f6ad1e465980fb0b0583d8a0633d041b3521ddb",
          "transactionIndex": "0x0",
          "logIndex": "0x1",
          "removed": false
        },
        {
          "address": "0x0635513f179d50a207757e05759cbd106d7dfce8",
          "topics": [
            "0xc3d58168c5ae7397731d063d5bbf3d657854427343f4c083240f7aacaa2d0f62",
            "0x00000000000000000000000045e6d4230064f9dd806330da9d92639f8665d9bf",
            "0x0000000000000000000000000000000000000000000000000000000000000000",
            "0x000000000000000000000000224b11f0747c7688a10acc15f785354aa6493ed6"
          ],
          "data": "0x2c3148b804759549bea938aab4264d3fe312832a7c9523f2f4e728f32d4147800000000000000000000000000000000000000000000000000000000000000001",
          "blockHash": "0x658527a0bbd73af06aaa718a77139e85eaebe7c734b9dd66f351365bbe1f04ce",
          "blockNumber": "0xa43607",
          "blockTimestamp": "0x69f342a2",
          "transactionHash": "0x75f69f909b089db6a5221fbd0f6ad1e465980fb0b0583d8a0633d041b3521ddb",
          "transactionIndex": "0x0",
          "logIndex": "0x2",
          "removed": false
        },
        {
          "address": "0x0635513f179d50a207757e05759cbd106d7dfce8",
          "topics": [
            "0x8ce7013e8abebc55c3890a68f5a27c67c3f7efa64e584de5fb22363c606fd340",
            "0x2c3148b804759549bea938aab4264d3fe312832a7c9523f2f4e728f32d414780"
          ],
          "data": "0x0000000000000000000000000000000000000000000000000000000000000080000000000000000000000000224b11f0747c7688a10acc15f785354aa6493ed60000000000000000000000000000000000000000000000000000000000000000000000000000000000000000000000000000000000000000000000007d3734740000000000000000000000000000000000000000000000000000000000000015076e69636f6c6173076167656e74696303657468000000000000000000000000",
          "blockHash": "0x658527a0bbd73af06aaa718a77139e85eaebe7c734b9dd66f351365bbe1f04ce",
          "blockNumber": "0xa43607",
          "blockTimestamp": "0x69f342a2",
          "transactionHash": "0x75f69f909b089db6a5221fbd0f6ad1e465980fb0b0583d8a0633d041b3521ddb",
          "transactionIndex": "0x0",
          "logIndex": "0x3",
          "removed": false
        }
      ],
      "logsBloom": "0x00000000000000400000000000000000000200001000002020000000000004000000000000000000000000000000000000000000000010000000000000032000000000000000000040200000000000000000000000000000000000000000000000000000020010000000000004000a00000000200000001000000000000000000000010000000000000000000000000000000000000000000000000000800000000000000000040000000000000000000004000000000000000000040000000000000002000000004000004000004000000000000008000000000000000020000000000800000000000000000500040000000000000000000000080000000004",
      "type": "0x2",
      "transactionHash": "0x75f69f909b089db6a5221fbd0f6ad1e465980fb0b0583d8a0633d041b3521ddb",
      "transactionIndex": "0x0",
      "blockHash": "0x658527a0bbd73af06aaa718a77139e85eaebe7c734b9dd66f351365bbe1f04ce",
      "blockNumber": "0xa43607",
      "gasUsed": "0x25887",
      "effectiveGasPrice": "0xf63ac",
      "blobGasPrice": "0x1",
      "from": "0x224b11f0747c7688a10acc15f785354aa6493ed6",
      "to": "0x45e6d4230064f9dd806330da9d92639f8665d9bf",
      "contractAddress": null
    },
    {
      "status": "0x1",
      "cumulativeGasUsed": "0x4b10e",
      "logs": [
        {
          "address": "0x00000000000c2e074ec69a0dfb2997ba6c7d2e1e",
          "topics": [
            "0xce0457fe73731f824cc272376169235128c118b49d344817417c6d108d155e82",
            "0xa5a5de1b77998a2f087d62b345f66c119d03c7137e0dc19724a45235b1cd9bcf",
            "0xdfdfc2f2dad7ea0208731decb1bfde616c815ce75c7079c0fa7782865ac71fcd"
          ],
          "data": "0x0000000000000000000000000635513f179d50a207757e05759cbd106d7dfce8",
          "blockHash": "0x658527a0bbd73af06aaa718a77139e85eaebe7c734b9dd66f351365bbe1f04ce",
          "blockNumber": "0xa43607",
          "blockTimestamp": "0x69f342a2",
          "transactionHash": "0x07fbb8f0905c191ca2b6aed596c4059a85a117c737749d276e94e3690ee51137",
          "transactionIndex": "0x1",
          "logIndex": "0x4",
          "removed": false
        },
        {
          "address": "0x00000000000c2e074ec69a0dfb2997ba6c7d2e1e",
          "topics": [
            "0x335721b01866dc23fbee8b6b2c7b1e14d6f05c28cd35a2c934239f94095602a0",
            "0x50c211461f6f9bfb58d50caef25ba7691a6dd78ecee7185f5e655ee2d06beab3"
          ],
          "data": "0x000000000000000000000000e99638b40e4fff0129d56f03b55b6bbc4bbe49b5",
          "blockHash": "0x658527a0bbd73af06aaa718a77139e85eaebe7c734b9dd66f351365bbe1f04ce",
          "blockNumber": "0xa43607",
          "blockTimestamp": "0x69f342a2",
          "transactionHash": "0x07fbb8f0905c191ca2b6aed596c4059a85a117c737749d276e94e3690ee51137",
          "transactionIndex": "0x1",
          "logIndex": "0x5",
          "removed": false
        },
        {
          "address": "0x0635513f179d50a207757e05759cbd106d7dfce8",
          "topics": [
            "0xc3d58168c5ae7397731d063d5bbf3d657854427343f4c083240f7aacaa2d0f62",
            "0x00000000000000000000000045e6d4230064f9dd806330da9d92639f8665d9bf",
            "0x0000000000000000000000000000000000000000000000000000000000000000",
            "0x000000000000000000000000224b11f0747c7688a10acc15f785354aa6493ed6"
          ],
          "data": "0x50c211461f6f9bfb58d50caef25ba7691a6dd78ecee7185f5e655ee2d06beab30000000000000000000000000000000000000000000000000000000000000001",
          "blockHash": "0x658527a0bbd73af06aaa718a77139e85eaebe7c734b9dd66f351365bbe1f04ce",
          "blockNumber": "0xa43607",
          "blockTimestamp": "0x69f342a2",
          "transactionHash": "0x07fbb8f0905c191ca2b6aed596c4059a85a117c737749d276e94e3690ee51137",
          "transactionIndex": "0x1",
          "logIndex": "0x6",
          "removed": false
        },
        {
          "address": "0x0635513f179d50a207757e05759cbd106d7dfce8",
          "topics": [
            "0x8ce7013e8abebc55c3890a68f5a27c67c3f7efa64e584de5fb22363c606fd340",
            "0x50c211461f6f9bfb58d50caef25ba7691a6dd78ecee7185f5e655ee2d06beab3"
          ],
          "data": "0x0000000000000000000000000000000000000000000000000000000000000080000000000000000000000000224b11f0747c7688a10acc15f785354aa6493ed60000000000000000000000000000000000000000000000000000000000000000000000000000000000000000000000000000000000000000000000007d3734740000000000000000000000000000000000000000000000000000000000000015076761627269656c076167656e74696303657468000000000000000000000000",
          "blockHash": "0x658527a0bbd73af06aaa718a77139e85eaebe7c734b9dd66f351365bbe1f04ce",
          "blockNumber": "0xa43607",
          "blockTimestamp": "0x69f342a2",
          "transactionHash": "0x07fbb8f0905c191ca2b6aed596c4059a85a117c737749d276e94e3690ee51137",
          "transactionIndex": "0x1",
          "logIndex": "0x7",
          "removed": false
        }
      ],
      "logsBloom": "0x00000000000000400000000000000000000200000000002020000000000004000000000000000000000000000000004000000000000010000000000800032000000000000010000040200000000000000000000000000000040000000000000000000000020000000000000004000800000000200000000000000000000000000000010000400000000000000000000000000000000000000000000000800000000000000000040000000000000000000004000000000000000000040000000000000102000000004000004000004000000000000008000000000000000020000000000800000000000000000500000000000000000000000000080000000000",
      "type": "0x2",
      "transactionHash": "0x07fbb8f0905c191ca2b6aed596c4059a85a117c737749d276e94e3690ee51137",
      "transactionIndex": "0x1",
      "blockHash": "0x658527a0bbd73af06aaa718a77139e85eaebe7c734b9dd66f351365bbe1f04ce",
      "blockNumber": "0xa43607",
      "gasUsed": "0x25887",
      "effectiveGasPrice": "0xf63ac",
      "blobGasPrice": "0x1",
      "from": "0x224b11f0747c7688a10acc15f785354aa6493ed6",
      "to": "0x45e6d4230064f9dd806330da9d92639f8665d9bf",
      "contractAddress": null
    }
  ],
  "libraries": [],
  "pending": [],
  "returns": {},
  "timestamp": 1777549994364,
  "chain": 11155111,
  "commit": "a718492"
}